{
  "contractName": "Instructor",
  "abi": [
    {
      "constant": true,
      "inputs": [
        {
          "name": "",
          "type": "uint256"
        }
      ],
      "name": "instructorAccts",
      "outputs": [
        {
          "name": "",
          "type": "address"
        }
      ],
      "payable": false,
      "stateMutability": "view",
      "type": "function"
    },
    {
      "anonymous": false,
      "inputs": [
        {
          "indexed": false,
          "name": "fName",
          "type": "bytes16"
        },
        {
          "indexed": false,
          "name": "lName",
          "type": "bytes16"
        },
        {
          "indexed": false,
          "name": "age",
          "type": "uint256"
        }
      ],
      "name": "instructorInfo",
      "type": "event"
    },
    {
      "constant": false,
      "inputs": [
        {
          "name": "_address",
          "type": "address"
        },
        {
          "name": "_age",
          "type": "uint256"
        },
        {
          "name": "_fName",
          "type": "bytes16"
        },
        {
          "name": "_lName",
          "type": "bytes16"
        }
      ],
      "name": "setInstructor",
      "outputs": [],
      "payable": false,
      "stateMutability": "nonpayable",
      "type": "function"
    },
    {
      "constant": true,
      "inputs": [],
      "name": "getInstructors",
      "outputs": [
        {
          "name": "",
          "type": "address[]"
        }
      ],
      "payable": false,
      "stateMutability": "view",
      "type": "function"
    },
    {
      "constant": true,
      "inputs": [
        {
          "name": "_address",
          "type": "address"
        }
      ],
      "name": "getInstructor",
      "outputs": [
        {
          "name": "",
          "type": "uint256"
        },
        {
          "name": "",
          "type": "bytes16"
        },
        {
          "name": "",
          "type": "bytes16"
        }
      ],
      "payable": false,
      "stateMutability": "view",
      "type": "function"
    },
    {
      "constant": true,
      "inputs": [],
      "name": "countInstructors",
      "outputs": [
        {
          "name": "",
          "type": "uint256"
        }
      ],
      "payable": false,
      "stateMutability": "view",
      "type": "function"
    }
  ],
  "bytecode": "0x6080604052336000806101000a81548173ffffffffffffffffffffffffffffffffffffffff021916908373ffffffffffffffffffffffffffffffffffffffff1602179055506106ec806100536000396000f30060806040526004361061006d576000357c0100000000000000000000000000000000000000000000000000000000900463ffffffff1680630429e372146100725780635eff7dae146101235780638eb5234c1461018f578063ca8ab933146101fc578063d69e1e2d14610227575b600080fd5b34801561007e57600080fd5b506100b3600480360381019080803573ffffffffffffffffffffffffffffffffffffffff1690602001909291905050506102ae565b60405180848152602001836fffffffffffffffffffffffffffffffff19166fffffffffffffffffffffffffffffffff19168152602001826fffffffffffffffffffffffffffffffff19166fffffffffffffffffffffffffffffffff19168152602001935050505060405180910390f35b34801561012f57600080fd5b506101386103c3565b6040518080602001828103825283818151815260200191508051906020019060200280838360005b8381101561017b578082015181840152602081019050610160565b505050509050019250505060405180910390f35b34801561019b57600080fd5b506101ba60048036038101908080359060200190929190505050610451565b604051808273ffffffffffffffffffffffffffffffffffffffff1673ffffffffffffffffffffffffffffffffffffffff16815260200191505060405180910390f35b34801561020857600080fd5b5061021161048f565b6040518082815260200191505060405180910390f35b34801561023357600080fd5b506102ac600480360381019080803573ffffffffffffffffffffffffffffffffffffffff1690602001909291908035906020019092919080356fffffffffffffffffffffffffffffffff1916906020019092919080356fffffffffffffffffffffffffffffffff1916906020019092919050505061049c565b005b6000806000600160008573ffffffffffffffffffffffffffffffffffffffff1673ffffffffffffffffffffffffffffffffffffffff16815260200190815260200160002060000154600160008673ffffffffffffffffffffffffffffffffffffffff1673ffffffffffffffffffffffffffffffffffffffff16815260200190815260200160002060010160009054906101000a900470010000000000000000000000000000000002600160008773ffffffffffffffffffffffffffffffffffffffff1673ffffffffffffffffffffffffffffffffffffffff16815260200190815260200160002060010160109054906101000a9004700100000000000000000000000000000000029250925092509193909250565b6060600280548060200260200160405190810160405280929190818152602001828054801561044757602002820191906000526020600020905b8160009054906101000a900473ffffffffffffffffffffffffffffffffffffffff1673ffffffffffffffffffffffffffffffffffffffff16815260200190600101908083116103fd575b5050505050905090565b60028181548110151561046057fe5b906000526020600020016000915054906101000a900473ffffffffffffffffffffffffffffffffffffffff1681565b6000600280549050905090565b60008060009054906101000a900473ffffffffffffffffffffffffffffffffffffffff1673ffffffffffffffffffffffffffffffffffffffff163373ffffffffffffffffffffffffffffffffffffffff161415156104f957600080fd5b600160008673ffffffffffffffffffffffffffffffffffffffff1673ffffffffffffffffffffffffffffffffffffffff1681526020019081526020016000209050838160000181905550828160010160006101000a8154816fffffffffffffffffffffffffffffffff021916908370010000000000000000000000000000000090040217905550818160010160106101000a8154816fffffffffffffffffffffffffffffffff021916908370010000000000000000000000000000000090040217905550600160028690806001815401808255809150509060018203906000526020600020016000909192909190916101000a81548173ffffffffffffffffffffffffffffffffffffffff021916908373ffffffffffffffffffffffffffffffffffffffff16021790555050507fa60691fff33251eeea9783cf4ce933e6cd6710379c9532c1b3b061d023cb50b783838660405180846fffffffffffffffffffffffffffffffff19166fffffffffffffffffffffffffffffffff19168152602001836fffffffffffffffffffffffffffffffff19166fffffffffffffffffffffffffffffffff19168152602001828152602001935050505060405180910390a150505050505600a165627a7a72305820afc35e6132778a68649e8040e77b9cc60ecc23eaeefcd0534db5e4cb68060db10029",
  "source": "pragma solidity ^0.4.18;\n\n// base contract to allow other contracts to inherit from this contract.\ncontract Owned {\n    address owner;\n    // constructor method to set the 'owner' variable to the address that created the contract.\n    // the owned function will contain the contract creator's address and give it to the \"owner\" variable.\n    function Owned() public {\n        owner = msg.sender;\n    }\n    // modifier to require the owner for functions associated with it; permissions.\n    // for example: setting the instructor will need this modifider.\n    modifier ownerOnly {\n        require(msg.sender == owner);\n        _;\n    }\n}\n\n// 'is Owned' (name of base contract) after the contract name.\n//is how you have a contract inherit code from another contract.\n\ncontract Instructor is Owned {\n    // structs allow you to make a 'blueprint' or structor for contract properties.\n    // it can be thought of as an object.\n    struct Instructor {\n        uint age;\n        bytes16 fName;\n        bytes16 lName;\n    }\n    // this code maps the address array to the instructor struct above \n    // and assigns the mapping to a variable called 'instructors'.\n    // then it takes the address array and puts it inside the instructorAccts array.\n    mapping (address => Instructor) instructors;\n    address[] public instructorAccts;\n    \n    event instructorInfo(\n        bytes16 fName,\n        bytes16 lName,\n        uint age\n    );\n    \n    function setInstructor (address _address, uint _age, bytes16 _fName, bytes16 _lName) ownerOnly public {\n        Instructor storage instructor = instructors[_address];\n        \n        instructor.age = _age;\n        instructor.fName = _fName;\n        instructor.lName = _lName;\n        \n        instructorAccts.push(_address) -1;\n        instructorInfo(_fName, _lName, _age);\n    }\n    \n    function getInstructors() view public returns (address[]) {\n        return instructorAccts;\n    }\n    \n    function getInstructor(address _address) view public returns (uint, bytes16, bytes16) {\n        return (instructors[_address].age, instructors [_address].fName, instructors[_address].lName);\n    }\n    \n    function countInstructors() view public returns (uint) {\n        return instructorAccts.length;\n    }\n}\n",
  "sourcePath": "/home/mickey/com.github/Karffee/static/ethereum/contracts/Instructor.sol",
  "compiler": {
    "name": "solc",
    "version": "0.4.25+commit.59dbf8f1.Emscripten.clang"
  },
  "schemaVersion": "2.0.2",
  "updatedAt": "2019-09-15T00:41:13.120Z"
}